:020000040000FA
:100000000C9485000C94AD000C94AD000C94AD00E4
:100010000C94AD000C94AD000C94AD000C94AD00AC
:100020000C94AD000C94AD000C94AD000C94CB0876
:100030000C94AD000C94AD000C94AD000C94AD008C
:100040000C9481080C94AD000C944F080C94290872
:100050000C94AD000C94AD000C94AD000C94AD006C
:100060000C94AD000C94AD00072C7AA5BA6CC59029
:10007000DA3B9365FC8BBC53F810FD3C5692834DE4
:10008000BD879D3AB63DCBC9BF5BBE73DA0FC93F92
:1000900005A84CCDB2D44EB93836A9020C50B9914E
:1000A0008688083CA6AAAA2ABE000000803F00005D
:1000B0000000240027002A0000000000250028007E
:1000C0002B00000000002300260029000404040483
:1000D00004040404020202020202030303030303F2
:1000E00001020408102040800102040810200102CF
:1000F00004081020000000080002010000030407AB
:100100000000000000000000870911241FBECFEF8F
:10011000D8E0DEBFCDBF12E0A0E0B1E0EAECF4E24F
:1001200002C005900D92AE30B107D9F723E0AEE0E2
:10013000B2E001C01D92AF37B207E1F710E0C5E8A9
:10014000D0E004C02197FE010E945D12C438D1079F
:10015000C9F70E94760A0C9463120C94000096E092
:10016000899FD0011124A65FBC4F90967C936E931B
:100170005F9791E091969C939197E0917703F0912E
:10018000780390917603992339F0309751F08111DB
:1001900008C0809126030994309719F05C968C91E1
:1001A000FACF0895CF92DF92EF92FF920F931F93B1
:1001B00096E0899FF0011124E65FFC4F11A2278D84
:1001C00030A12130310551F178F02230310509F4A8
:1001D00051C02330310509F452C01F910F91FF9097
:1001E000EF90DF90CF9008956623B9F361E070E05F
:1001F0000E94AF002FB7F89480912C0290912D02AD
:10020000A0912E02B0912F022FBF80936203909392
:100210006303A0936403B0936503DFCF9FB7F894A3
:10022000C0902C02D0902D02E0902E02F0902F0270
:100230009FBF00916203109163032091640330918A
:100240006503C01AD10AE20AF30A009174031091FF
:10025000750330E020E00C151D052E053F0550F418
:1002600062E070E01F910F91FF90EF90DF90CF90D0
:100270000C94AF006111B1CF63E070E0F3CF70E098
:1002800060E0F0CFFC01538D448D252F30E0842FAA
:1002900090E0821B930B541710F0CF9608950197AE
:1002A0000895FC01918D828D981761F0A28DAE0F9B
:1002B000BF2FB11D5D968C91928D9F5F9F73928F22
:1002C00090E008958FEF9FEF0895FC01918D828D4E
:1002D000981731F0828DE80FF11D858D90E008951B
:1002E0008FEF9FEF0895FC01918D228D892F90E073
:1002F000805C9F4F821B91098F7399270895FC01A1
:10030000A48DA80FB92FB11DA35ABF4F2C91848D76
:1003100090E001968F739927848FA689B7892C93D3
:10032000A089B1898C91837080648C93938D848D26
:10033000981306C00288F389E02D80818F7D808329
:100340000895EF92FF920F931F93CF93DF93EC01E9
:1003500081E0888F9B8D8C8D98131AC0E889F9896C
:10036000808185FF15C09FB7F894EE89FF8960836F
:10037000E889F98980818370806480839FBF81E0F0
:1003800090E0DF91CF911F910F91FF90EF90089532
:10039000F62E0B8D10E00F5F1F4F0F731127E02E0D
:1003A0008C8D8E110CC00FB607FCFACFE889F98945
:1003B000808185FFF5CFCE010E947F01F1CFEB8DCB
:1003C000EC0FFD2FF11DE35AFF4FF0829FB7F89419
:1003D0000B8FEA89FB8980818062CFCFCF93DF9337
:1003E000EC01888D8823B9F0AA89BB89E889F9894D
:1003F0008C9185FD03C0808186FD0DC00FB607FC82
:10040000F7CF8C9185FFF2CF808185FFEDCFCE01B4
:100410000E947F01E9CFDF91CF91089580E392E0C0
:100420000E94730121E0892B09F420E0822F0895B6
:1004300080E090E0892B29F00E940E0281110C943B
:1004400000000895AF92BF92CF92DF92EF92FF9299
:100450000F931F93CF93DF936C017B018B01040FEC
:10046000151FEB015E01AE18BF08C017D10759F088
:100470006991D601ED91FC910190F081E02DC601CA
:100480000995892B79F7C501DF91CF911F910F91C4
:10049000FF90EF90DF90CF90BF90AF9008958330A2
:1004A00081F028F4813099F08230A9F008958730E6
:1004B000A9F08830C9F08430B1F4809180008F7D3C
:1004C00003C0809180008F7780938000089584B569
:1004D0008F7784BD089584B58F7DFBCF8091B00068
:1004E0008F778093B00008958091B0008F7DF9CF11
:1004F000CF93DF93282F30E0F901EC50FF4F849128
:10050000F901E052FF4FD491F901E453FF4FC49138
:10051000CC23A1F081110E944F02EC2FF0E0EE0FEE
:10052000FF1FEE53FF4FA591B491EC91ED2381E0B5
:1005300090E009F480E0DF91CF91089580E090E0B1
:10054000FACF862F0C9478021F93CF93DF93282F36
:1005500030E0F901EC50FF4F8491F901E052FF4F78
:10056000D491F901E453FF4FC491CC23A9F0162F85
:1005700081110E944F02EC2FF0E0EE0FFF1FE854B4
:10058000FF4FA591B4918FB7F894EC91111108C069
:10059000D095DE23DC938FBFDF91CF911F9108951B
:1005A000DE2BF8CF862F642F0C94A402CF93DF9319
:1005B00090E0FC01E052FF4F249184539F4FFC01D7
:1005C00084918823C9F090E0880F991FFC01E255BF
:1005D000FF4FA591B491FC01E854FF4FC591D49110
:1005E00061110DC09FB7F8948C91209582238C9354
:1005F0008881282328839FBFDF91CF91089562309F
:1006000051F49FB7F8943C91822F809583238C936B
:10061000E8812E2BEFCF8FB7F894EC912E2B2C93F3
:100620008FBFEACF862F642F0C94D6026F927F92F1
:100630008F929F92AF92BF92CF92DF92EF92FF92F2
:100640000F931F93CF93DF9381E0809376038FB74F
:10065000F89440912C0250912D0260912E027091DD
:100660002F028FBF8091660390916703A09168036A
:10067000B0916903481B590B6A0B7B0B8091720385
:1006800090917303B0E0A0E084179507A607B70721
:1006900008F01DC1C0E080917003C81760F4E091BC
:1006A0006C03F0916D03EC0FF11D62E080810E94FC
:1006B000D602CF5FF0CF712C812C912C5401839402
:1006C00080917103781608F05FC0072D10E0E0916B
:1006D0006E03F0916F03E00FF11F61E080810E94D3
:1006E000D602E0916E03F0916F03E00FF11F60E01E
:1006F00080810E94A402D501C401072C04C0880F88
:10070000991FAA1FBB1F0A94D2F76C017C01E094C9
:10071000F094612C809170036816F8F4C62DD0E037
:10072000E0916C03F0916D03EC0FFD1F80810E943E
:1007300078022496CC0FDD1FC65FDC4F892B41F475
:10074000888199818C299D29998388836394E2CF3C
:10075000888199818E219F21F7CFE0916E03F091DE
:100760006F03E00FF11F61E080810E94A40280917D
:100770006E0390916F03080F191F60E0F8018081EC
:100780000E94D60273949CCFCAE0D3E0FE018FEFA3
:100790009FEF278D30A1232B21F4148E968F858F08
:1007A00011A2369623E0E634F20799F7F12C96E091
:1007B000D92E80917003F81608F050C0E12C0F2D4F
:1007C00010E0000F111F0E5E1C4F20917103E21606
:1007D00008F042C0F801608171810E2C02C076954C
:1007E00067950A94E2F7F29E900111242E0D311DB7
:1007F000EAE0F3E080E0458D568D2417350709F4D3
:100800006AC08F5F36968A30B1F760FF23C0EAE096
:10081000F3E090E080E0448D411117C0E0916A035D
:10082000F0916B03E20FF31F4081D89EF001D99E37
:10083000F00D1124E65FFC4F448F368F258F10A2F8
:10084000178E61E00E94D20005C0019636968A306C
:10085000910509F7E394B9CFF394ABCF80E099A168
:100860009111892F2696F3E0C634DF07C1F79FB7B1
:10087000F89440912C0250912D0260912E027091BB
:100880002F029FBF409366035093670360936803F2
:10089000709369038823D9F080912B038823B9F0E2
:1008A0008091290390912A03019789F4809126036E
:1008B000DF91CF911F910F91FF90EF90DF90CF903C
:1008C000BF90AF909F908F907F906F9008951092FF
:1008D000760380E0EDCF6170B5CF3FB7F89480919B
:1008E000100290911102A0911202B091130226B54C
:1008F000A89B05C02F3F19F00196A11DB11D3FBF58
:10090000BA2FA92F982F8827BC01CD01620F711D26
:10091000811D911D42E0660F771F881F991F4A9520
:10092000D1F708958F929F92AF92BF92CF92DF92AC
:10093000EF92FF924B015C010E946D046B017C0100
:100940000E946D046C197D098E099F09683E7340F1
:1009500081059105A8F321E0821A9108A108B10848
:1009600088EEC80E83E0D81EE11CF11C81149104AE
:10097000A104B10429F7FF90EF90DF90CF90BF90D2
:10098000AF909F908F900895089590E080E0089533
:10099000CF92DF92EF92FF92CF93DF93EC01603220
:1009A00082E07807CCF5653B710514F064EB70E0EC
:1009B000898128E830E0281B310987FD3395220F13
:1009C000331F220F331F6901330FEE08FF088A819E
:1009D00028E532E0281B310987FD3395220F331FAC
:1009E000220F331F032E000C440B550B2C193D090D
:1009F0004E095F09DB0177FF02C0B0E0A0E00E9472
:100A0000C20E24EB30E040E050E00E94980EC20E8F
:100A1000D31EE41EF51EB601E881EC3070F5298185
:100A200088E890E0821B910927FD9395880F991F14
:100A3000880F991F681779077CF02A8188E592E072
:100A4000821B910927FD9395880F991F880F991F85
:100A5000681779070CF4CB010297880F991F4FB7DD
:100A6000F8942E2F30E0F901EE0FFF1FE20FF31F75
:100A7000E353FD4F928381834FBFDF91CF91FF906E
:100A8000EF90DF90CF900895892B79F41092800039
:100A900082E0809381001092850010928400B19AC8
:100AA00080916F00826080936F000895CF93DF93F1
:100AB000EC0160E08E810E94A40261E08E810E94C0
:100AC000A40260E08E810E94A4028BE891E001976D
:100AD000F1F7DF91CF910895CF92DF92EF92FF92DD
:100AE0000F931F93CF93DF936C017C0187E0E80E97
:100AF000F11CD0E0C0E0062F10E0B8010C2E02C0BF
:100B0000759567950A94E2F76170F70181917F010D
:100B10000E94A4022196C430D10579F7C601DF9165
:100B2000CF911F910F91FF90EF90DF90CF900C9499
:100B30005605CF92DF92EF92FF920F931F93CF93C0
:100B4000DF93EC01F62E642F8C810E94A4028D812C
:100B50008F3F19F060E00E94A4020F2D10E08F85F6
:100B600084FF25C06E0187E0C80ED11CF12CE12C5A
:100B7000B8010E2C02C0759567950A94E2F7617072
:100B8000F60181916F010E94A402FFEFEF1AFF0AA4
:100B900088E0E816F10461F7CE01DF91CF911F9153
:100BA0000F91FF90EF90DF90CF900C945605B80115
:100BB00084E0759567958A95E1F7CE010E946C05F2
:100BC0006F2DCE01DF91CF911F910F91FF90EF908C
:100BD000DF90CF900C946C0540E0682F82EF92E09C
:100BE0000C94990581E00E94EC058BE39FE101974D
:100BF000F1F70895CF93DF93823029F490910103A8
:100C0000986090930103809305031092060380E49B
:100C10008093070380E18093080380E580930903B4
:100C200061E08091F6020E94D6028091F7028F3F28
:100C300019F061E00E94D60261E08091F8020E9402
:100C4000D602C2EFD2E09E01225F324080910103C2
:100C500084FD0BC084E090E021962817390744F406
:100C600061E08E810E94D602EECF88E090E0F4CF62
:100C70008BE39DE00197F1F760E08091F6020E941E
:100C8000A40260E08091F8020E94A4028091F70221
:100C90008F3F19F060E00E94A4028091010384FD5F
:100CA00034C063E082EF92E00E946C05CBE4D6E4AE
:100CB000CE010197F1F763E082EF92E00E946C05AC
:100CC0002197F1F763E082EF92E00E946C0583E5E3
:100CD00092E00197F1F762E082EF92E00E946C05EA
:100CE0008091010380620E94EC0584E080930203FE
:100CF0008CE00E94EC050E94F20582E080930303E1
:100D000086E0DF91CF910C94EC0580620E94EC05A7
:100D10008BE496E40197F1F78091010380620E94D1
:100D2000EC0583E592E00197F1F780910103806281
:100D30000E94EC05D5CFE0910503E23048F4E15084
:100D4000F0E0EE50FD4F9489890F80680C94EC051B
:100D5000E1E0F6CF41E00E94990581E090E008953E
:100D6000FB0101900020E9F73197AF01461B570BBB
:100D7000DC01ED91FC910280F381E02D09948F92CA
:100D80009F92AF92BF92EF92FF920F931F93CF93D8
:100D9000DF93CDB7DEB7A1970FB6F894DEBF0FBED5
:100DA000CDBF7C01FA01CB0119A2223008F42AE060
:100DB0008E010F5D1F4F822E912CB12CA12CBF01F3
:100DC000A50194010E94CA0EF901CA016A300CF50E
:100DD000605DD8016E938D01232B242B252B79F791
:100DE00090E080E0109721F0BD01C7010E94B0069D
:100DF000A1960FB6F894DEBF0FBECDBFDF91CF91A5
:100E00001F910F91FF90EF90BF90AF909F908F90A8
:100E10000895695CDECFCF92DF92EF92FF926C0172
:100E2000092E000CEE08FF0897FF18C041E06DE2A4
:100E300082EF92E00E94990544275527BA014C1988
:100E40005D096E097F092AE082EF92E00E94BF06E9
:100E50000196FF90EF90DF90CF9008952AE0B701C0
:100E6000A60182EF92E0FF90EF90DF90CF900C947C
:100E7000BF062F923F924F925F926F927F928F9216
:100E80009F92AF92BF92CF92DF92EF92FF921F9309
:100E9000CF93DF93EC016A017B01722EAB019601C7
:100EA000CB01B6010E9423126BE371E0811126C0D1
:100EB00046015701E894B7F82FEF3FEF4FE75FE7A0
:100EC000C501B4010E94231281110CC02FEF3FEF26
:100ED0004FE75FE7C501B4010E94790F6FE371E04E
:100EE000181664F02FEF3FEF4FE75FE4C701B6013C
:100EF0000E9463111816B4F463E471E0CE01DF912F
:100F0000CF911F91FF90EF90DF90CF90BF90AF9067
:100F10009F908F907F906F905F904F903F902F9019
:100F20000C94B0062FEF3FEF4FE75FECC701B6011F
:100F30000E94790F87FDE0CF20E030E0A901C701D2
:100F4000B6010E94790F312C212C87FF0DC0E8815A
:100F5000F9810190F081E02D6DE2CE0109951C012F
:100F6000F7FAF094F7F8F09410E060E070E080E0B9
:100F70009FE3711641F020E030E040E251E40E942E
:100F8000830F1F5FF6CFA70196010E940D0F2B0163
:100F90003C010E94FC0F4B015C012AE0BC01A40152
:100FA000CE010E94BF067C01E20CF31C1123E1F18B
:100FB000C501B4010E942B109B01AC01C301B20119
:100FC0000E940C0F4B015C01E881F9810190F081D6
:100FD000E02D6EE2CE010995E80EF91E115020F1C8
:100FE00020E030E040E251E4C501B4010E94681104
:100FF0002B013C010E94FC0F4B01B12CA12C2AE0DB
:10100000B501A401CE010E94BF06E80EF91EC5017C
:10101000B4010E942B109B01AC01C301B2010E94DC
:101020000C0F4B015C01DACFC701DF91CF911F910B
:10103000FF90EF90DF90CF90BF90AF909F908F90F8
:101040007F906F905F904F903F902F9008950C94F9
:10105000B0061F920F920FB60F9211242F933F9359
:101060004F935F936F937F938F939F93AF93BF93B0
:10107000EF93FF9380E392E00E947F01FF91EF9155
:10108000BF91AF919F918F917F916F915F914F91A0
:101090003F912F910F900FBE0F901F9018951F92A8
:1010A0000F920FB60F9211242F938F939F93EF936C
:1010B000FF93E0914002F09141028081E09146026D
:1010C000F091470282FD1BC09081809149028F5FA1
:1010D0008F7320914A02821741F0E0914902F0E0BB
:1010E000E05DFD4F958F80934902FF91EF919F91B5
:1010F0008F912F910F900FBE0F901F9018958081A8
:10110000F4CF1F920F920FB60F9211242F933F939B
:101110008F939F93AF93BF9380912C0290912D0258
:10112000A0912E02B0912F0230910F0223E0230FE5
:101130002D3758F50196A11DB11D20930F02809304
:101140002C0290932D02A0932E02B0932F02809137
:10115000100290911102A0911202B0911302019617
:10116000A11DB11D8093100290931102A093120251
:10117000B0931302BF91AF919F918F913F912F91A7
:101180000F900FBE0F901F90189526E8230F029620
:10119000A11DB11DD2CF1F920F920FB60F92112435
:1011A0002F933F934F935F936F937F938F939F936F
:1011B000AF93BF93CF93DF93EF93FF9380910E0292
:1011C000C091F102D0E087FF24C0109285001092F8
:1011D000840080910E028F5F80930E0280910E0238
:1011E000082E000C990B8C179D0724F480910E0299
:1011F0008C30C4F1809184009091850004968034F5
:101200009C4908F47AC080918400909185000496EE
:1012100076C080910E02082E000C990B8C179D074A
:10122000C4F6E0910E028E2FEE0F990BFC01EE0F2B
:10123000FF1FE80FF91FE353FD4F808186FFC9CFE1
:10124000E0910E028E2FEE0F990BFC01EE0FFF1FA7
:10125000E80FF91FE353FD4F808160E08F730E9418
:10126000A402B7CF2091840030918500E0910E0256
:101270008E2FEE0F990BFC01EE0FFF1FE80FF91FE9
:10128000E353FD4F81819281820F931F90938900D8
:1012900080938800E0910E028E2FEE0F990BFC01D7
:1012A000EE0FFF1FE80FF91FE353FD4F808186FF0C
:1012B00011C0E0910E028E2FEE0F990BFC01EE0F84
:1012C000FF1FE80FF91FE353FD4F808161E08F732B
:1012D0000E94A402FF91EF91DF91CF91BF91AF9156
:1012E0009F918F917F916F915F914F913F912F913E
:1012F0000F900FBE0F901F90189580E49CE990937B
:101300008900809388008FEF80930E02E3CF1092C4
:1013100033021092320288EE93E0A0E0B0E08093B6
:10132000340290933502A0933602B093370287E1DE
:1013300091E0909331028093300285EC90E090939D
:101340003D0280933C0284EC90E090933F028093B6
:101350003E0280EC90E0909341028093400281EC49
:1013600090E0909343028093420282EC90E090934D
:1013700045028093440286EC90E09093470280936C
:1013800046021092490210924A0210924B021092A9
:101390004C028091F1028C3008F0A0C091E0980FCF
:1013A0009093F10280937C0390E0FC01EE0FFF1F0D
:1013B000E80FF91FE353FD4F88EB9BE09283818395
:1013C0008091F1028C3008F08DC091E0980F9093DD
:1013D000F1028093790390E0FC01EE0FFF1FE80F0C
:1013E000F91FE353FD4F88EB9BE0928381831092BA
:1013F0000C031092100310920F031092110385E357
:1014000091E090930B0380930A03E6E2F3E01082ED
:10141000148213821582369683E0E236F807B9F714
:1014200083E091E090936D0380936C0380E091E002
:1014300090936F0380936E0384E08093700383E046
:101440008093710387E091E090936B0380936A032C
:101450008AE090E0909373038093720384EF91E0AD
:10146000909375038093740310927803109277031E
:10147000109266031092670310926803109269033A
:10148000109276031092F5021092F40289E291E034
:101490009093F3028093F2028DE08093F6028FEF37
:1014A0008093F7028CE08093F8028BE08093F9023E
:1014B0008AE08093FA0289E08093FB0288E08093BF
:1014C000FC021092FD021092FE021092FF02109296
:1014D00000031092010381E00C94FA058FEF8093D2
:1014E0007C036ECF8FEF8093790381CFCF93DF930F
:1014F00000D000D0CDB7DEB7789484B5826084BDCB
:1015000084B5816084BD85B5826085BD85B5816007
:1015100085BD80916E00816080936E001092810085
:101520008091810082608093810080918100816040
:101530008093810080918000816080938000809101
:10154000B10084608093B1008091B000816080938D
:10155000B00080917A00846080937A0080917A0054
:10156000826080937A0080917A00816080937A0013
:1015700080917A00806880937A001092C1008091F7
:101580007C038C3008F043C061E083E00E94D60207
:1015900080917C03282F30E0F901EE0FFF1FE20F4E
:1015A000F31FE353FD4F9081907C936090831092E2
:1015B0007D0310927E032CE0622F0E94511290E076
:1015C000829FB001112430E020E0AB01420F531F95
:1015D000FA01EE0FFF1FE40FF51FE353FD4F4081AB
:1015E00046FD07C02F5F3F4F2C30310571F70E9439
:1015F0004405E0917C038E2F90E0FC01EE0FFF1F6D
:10160000E80FF91FE353FD4F808180648083809150
:1016100079038C3008F043C061E084E00E94D60278
:1016200080917903282F30E0F901EE0FFF1FE20FC0
:10163000F31FE353FD4F9081907C94609083109250
:101640007A0310927B032CE0622F0E94511290E0EB
:10165000829FB001112430E020E0AB01420F531F04
:10166000FA01EE0FFF1FE40FF51FE353FD4F40811A
:1016700046FD07C02F5F3F4F2C30310571F70E94A8
:101680004405E09179038E2F90E0FC01EE0FFF1FDF
:10169000E80FF91FE353FD4F80818064808382E06F
:1016A0000E94FA0567E471E082EF92E00E94270849
:1016B00080E00E949B0663E571E082EF92E00E9469
:1016C000B0066FE571E082EF92E00E94B00668EB31
:1016D0007BE080E090E00E9492041AE00E94F20514
:1016E00070E060E08CE793E00E94C80470E060E086
:1016F00089E793E00E94C8040E94F20562E671E067
:1017000082EF92E00E94270880E00E949B0664E737
:1017100071E082EF92E00E9427080E94160388235E
:10172000E1F38053813009F0ACC10E94F20563E817
:1017300071E082EF92E00E94270880E00E949B0601
:1017400081E090E00E940B0760ED77E080E090E0A0
:101750000E9492040E94F20567EA71E082EF92E033
:101760000E9427080E941603C82E880FDD08C114A6
:10177000D104C1F380E00E949B0690E3C91AD1080E
:10178000C6010E940B070E941603E82E880FFF086F
:10179000E114F104C1F380E3E81AF108C7010E94E3
:1017A0000B0764EF71E080E090E00E9492041C9DC2
:1017B000B0011D9D700D11246E0D7F1D072E000CB4
:1017C000880B990B0E942D106093280270932902B8
:1017D00080932A0290932B020E94F20566EB71E03F
:1017E00082EF92E00E9427080E941603C82E880FFD
:1017F000DD08C114D104C1F380E00E949B0690E390
:10180000C91AD108C6010E940B070E941603E82ED0
:10181000880FFF08E114F104C1F380E3E81AF1082E
:10182000C7010E940B0764EF71E080E090E00E9426
:1018300092041C9DC0011D9D900D1124E80EF91EFF
:10184000B7010F2C000C880B990B0E942D104B0137
:101850005C018092240290922502A0922602B0920E
:101860002702409028025090290260902A0270902E
:101870002B02C301B2010E94F50F8CE793E00E9496
:10188000C804B70189E793E00E94C8040E94F205EA
:101890002BED3FE049E450E4C301B2010E9468111E
:1018A00020E030E044E353E40E94830F6B017C01AD
:1018B000C0921402D0921502E0921602F092170222
:1018C0002BED3FE049E450E4C501B4010E946811EA
:1018D00020E030E044E353E40E94830F4B015C01BD
:1018E0008092180290921902A0921A02B0921B02E2
:1018F000C701B6010E947E0F2B013C01A501940196
:10190000C701B6010E940D0F4B015C010E947E0FC2
:1019100069837A838B839C8320E030E040EF51E43D
:10192000C301B2010E9468112B013C0120E030E0AC
:1019300040E751E469817A818B819C810E94681122
:101940009B01AC01C301B2010E940D0F6093200204
:10195000709321028093220290932302C701B60163
:101960000E94D5116B017C01C501B4010E94D51103
:101970004B015C0120E030E040EF51E4C701B601CB
:101980000E9468116B017C0120E030E040E751E4E7
:10199000C501B4010E9468119B01AC01C701B601E9
:1019A0000E940D0F60931C0270931D0280931E0213
:1019B00090931F0265EC71E082EF92E00E9427088D
:1019C00085E00E949B0666ED71E082EF92E00E9446
:1019D000270886E00E949B0640911C0250911D0240
:1019E00060911E0270911F0222E082EF92E00E943D
:1019F000390763EB71E080E392E00E942708409191
:101A000028025091290260912A0270912B0222E053
:101A100080E392E00E9439076FE571E080E392E095
:101A20000E94B00662EC71E080E392E00E94270819
:101A30004091240250912502609126027091270264
:101A400022E080E392E00E9439076FE571E080E3D5
:101A500092E00E94B00668E57BE180E090E00E94A1
:101A60009204EE24E394F12C80E090E0892B09F4B9
:101A700035CE0E940E02882309F430CE0E94000069
:101A80002DCE823009F04FC10E94F20565E971E068
:101A900082EF92E00E94270880E00E949B0682E08D
:101AA00090E00E940B0760ED77E080E090E00E94FC
:101AB00092040E94F20568ED71E082EF92E00E94CC
:101AC00027080E941603C82E880FDD08C114D10410
:101AD000C1F380E00E949B0690E3C91AD108C601B9
:101AE0000E940B070E941603E82E880FFF08E114DE
:101AF000F104C1F380E3E81AF108C7010E940B0763
:101B000064EF71E080E090E00E9492041C9DB001BF
:101B10001D9D700D11246E0D7F1D072E000C880B6E
:101B2000990B0E942D1060932002709321028093E4
:101B30002202909323020E94F20569EE71E082EF87
:101B400092E00E9427080E941603C82E880FDD0825
:101B5000C114D104C1F380E00E949B0690E3C91A2E
:101B6000D108C6010E940B070E941603E82E880FB9
:101B7000FF08E114F104C1F380E3E81AF108C7019A
:101B80000E940B0764EF71E080E090E00E949204F5
:101B90001C9DB0011D9D700D11246E0D7F1D072E23
:101BA000000C880B990B0E942D106B017C01C092D8
:101BB0001C02D0921D02E0921E02F0921F020E94AF
:101BC000F205609120027091210280912202909191
:101BD00023029B01AC010E9468114B015C01A7012B
:101BE0009601C701B6010E9468119B01AC01C501B5
:101BF000B4010E940D0F20E030E041E654E40E9461
:101C00000C0F20E030E041E653E40E940C0F20E08E
:101C100030E041E654E40E94830F0E94FB0E609383
:101C2000240270932502809326029093270220E0DD
:101C300030E044E353E40E9468112BED3FE049E4B7
:101C400050E40E94830F9B01AC0120931802309353
:101C5000190240931A0250931B0260E070E088E47E
:101C600092E40E940C0F609314027093150280930B
:101C70001602909317026AEF71E082EF92E00E94E1
:101C8000270888E00E949B0667E072E082EF92E0FE
:101C90000E94270889E00E949B0669E072E082EFBB
:101CA00092E00E9427084091180250911902609119
:101CB0001A0270911B0222E082EF92E00E94390723
:101CC0004091140250911502609116027091170212
:101CD00022E080E392E00E94390760911402709143
:101CE000150280911602909117020E94F50F8CE761
:101CF00093E00E94C80460911802709119028091CB
:101D00001A0290911B020E94F50F89E793E00E944E
:101D1000C80468E57BE180E090E00E94920482E0E4
:101D2000E82EF12CA1CEEA94EF2809F0C2CE12CD14
:101D3000052E97FB1EF400940E94AF0E57FD07D0AE
:101D40000E94CA0E07FC03D04EF40C94AF0E5095BF
:101D50004095309521953F4F4F4F5F4F0895909597
:101D60008095709561957F4F8F4F9F4F08950E948A
:101D7000EC0EA59F900DB49F900DA49F800D911D1A
:101D800011240895B7FF0C94B70E0E94B70E821B62
:101D9000930B0895A1E21A2EAA1BBB1BFD010DC0D7
:101DA000AA1FBB1FEE1FFF1FA217B307E407F5070B
:101DB00020F0A21BB30BE40BF50B661F771F881FE7
:101DC000991F1A9469F760957095809590959B017D
:101DD000AC01BD01CF010895A29FB001B39FC00126
:101DE000A39F700D811D1124911DB29F700D811D47
:101DF0001124911D08959F939F770E9468100F9062
:101E0000002042F49058A2EA2AED3FE049E450E471
:101E10000E94240F0C9415115058BB27AA270E942A
:101E2000240F0C9415110E94DC1038F00E94E3106E
:101E300020F039F49F3F19F426F40C94B2100EF4FC
:101E4000E095E7FB0C94AC10E92F0E943A1158F38F
:101E5000BA17620773078407950720F079F4A6F58F
:101E60000C945C110EF4E0950B2EBA2FA02D0B01F3
:101E7000B90190010C01CA01A0011124FF27591BCF
:101E800099F0593F50F4503E68F11A16F040A22FD5
:101E9000232F342F4427585FF3CF46953795279546
:101EA000A795F0405395C9F77EF41F16BA0B620B45
:101EB000730B840BBAF09150A1F0FF0FBB1F661F8C
:101EC000771F881FC2F70EC0BA0F621F731F841FCF
:101ED00048F4879577956795B795F7959E3F08F0F5
:101EE000B0CF9395880F08F09927EE0F97958795B7
:101EF00008950E94881008F481E008950E94EC1073
:101F0000E3950C9426110E94970F0C9415110E94D2
:101F1000E31058F00E94DC1040F029F45F3F29F0F4
:101F20000C94AC1051110C945D110C94B2100E94E1
:101F30003A1168F39923B1F3552391F3951B550B8F
:101F4000BB27AA2762177307840738F09F5F5F4F8C
:101F5000220F331F441FAA1FA9F335D00E2E3AF0CB
:101F6000E0E832D091505040E695001CCAF72BD0E3
:101F7000FE2F29D0660F771F881FBB1F2617370734
:101F80004807AB07B0E809F0BB0B802DBF01FF2766
:101F900093585F4F3AF09E3F510578F00C94AC1087
:101FA0000C945D115F3FE4F3983ED4F386957795EA
:101FB0006795B795F7959F5FC9F7880F911D96951F
:101FC000879597F90895E1E0660F771F881FBB1F7B
:101FD000621773078407BA0720F0621B730B840B28
:101FE000BA0BEE1F88F7E09508950E94FC0F6894E5
:101FF000B1110C945D1108950E94421188F09F5711
:1020000098F0B92F9927B751B0F0E1F0660F771F1C
:10201000881F991F1AF0BA95C9F714C0B13091F012
:102020000E945C11B1E008950C945C11672F782F29
:102030008827B85F39F0B93FCCF3869577956795D7
:10204000B395D9F73EF490958095709561957F4F43
:102050008F4F9F4F0895E89409C097FB3EF49095E9
:102060008095709561957F4F8F4F9F4F9923A9F071
:10207000F92F96E9BB279395F69587957795679500
:10208000B795F111F8CFFAF4BB0F11F460FF1BC044
:102090006F5F7F4F8F4F9F4F16C0882311F096E9D7
:1020A00011C0772321F09EE8872F762F05C0662385
:1020B00071F096E8862F70E060E02AF09A95660F3E
:1020C000771F881FDAF7880F9695879597F90895F7
:1020D000DF93CF931F930F938B01EC01E8E6F0E0C1
:1020E0000E94B5100E9415119801AE018B01EC0100
:1020F00060E070E080E89FE30E940C0F0E94E31113
:102100009801AE010F911F91CF91DF910C947B113B
:10211000990F0008550FAA0BE0E8FEEF16161706F8
:10212000E807F907C0F012161306E407F50798F060
:10213000621B730B840B950B39F40A2661F0232B79
:10214000242B252B21F408950A2609F4A140A695F5
:102150008FEF811D811D089597F99F6780E870E0DA
:1021600060E008959FEF80EC0895DF93CF931F9375
:102170000F93FF92EF92DF927B018C01689406C06F
:10218000DA2EEF010E947B11FE01E894A5912591C2
:10219000359145915591A6F3EF010E94240FFE0160
:1021A0009701A801DA9469F7DF90EF90FF900F9103
:1021B0001F91CF91DF91089500240A9416161706F7
:1021C00018060906089500240A9412161306140628
:1021D000050608950C94B2100E944211D8F3E894B9
:1021E000E0E0BB279F57F0F02AED3FE049EC06C046
:1021F000EE0FBB0F661F771F881F28F0B23A6207E9
:102200007307840728F0B25A620B730B840BE395B3
:102210009A9572F7803830F49A95BB0F661F771F36
:10222000881FD2F790480C942A12092E0394000CB0
:1022300011F4882352F0BB0F40F4BF2B11F460FF60
:1022400004C06F5F7F4F8F4F9F4F0895EF93E0FF64
:1022500007C0A2EA2AED3FE049EC5FEB0E94240FA1
:102260000E9415110F90039401FC9058E0E9F0E0F2
:102270000C943D1257FD9058440F551F59F05F3F85
:1022800071F04795880F97FB991F61F09F3F79F098
:1022900087950895121613061406551FF2CF46951A
:1022A000F1DF08C0161617061806991FF1CF86959C
:1022B0007105610508940895E894BB276627772780
:1022C000CB0197F908950E94881008F48FEF0895C4
:1022D0000E947B110C9415110E94DC1038F00E94B2
:1022E000E31020F0952311F00C94AC100C94B21074
:1022F00011240C945D110E943A1170F3959FC1F363
:10230000950F50E0551F629FF001729FBB27F00DA3
:10231000B11D639FAA27F00DB11DAA1F649F6627F8
:10232000B00DA11D661F829F2227B00DA11D621F47
:10233000739FB00DA11D621F839FA00D611D221F01
:10234000749F3327A00D611D231F849F600D211DE5
:10235000822F762F6A2F11249F5750409AF0F1F068
:1023600088234AF0EE0FFF1FBB1F661F771F881FD1
:1023700091505040A9F79E3F510580F00C94AC104D
:102380000C945D115F3FE4F3983ED4F38695779506
:102390006795B795F795E7959F5FC1F7FE2B880F77
:1023A000911D9695879597F908959F930E94EC103B
:1023B0000F9007FCEE5F0C94261119F416F40C94A0
:1023C000B2100C9428120E944211B8F39923C9F359
:1023D000B6F39F57550B87FF0E9436120024A0E6E4
:1023E00040EA900180585695979528F4805C660FD6
:1023F000771F881F20F026173707480730F4621B25
:10240000730B840B202931294A2BA6951794079426
:10241000202531254A2758F7660F771F881F20F09F
:1024200026173707480730F4620B730B840B200D17
:10243000311D411DA09581F7B901842F9158880F56
:102440009695879508950E948810880B990B08959A
:102450009F3F31F0915020F4879577956795B79518
:10246000880F911D9695879597F908959150504042
:10247000660F771F881FD2F708959F938F937F93DE
:102480006F93FF93EF939B01AC010E946811EF9152
:10249000FF910E94B5102F913F914F915F910C9445
:1024A0006811991B79E004C0991F961708F0961BD4
:1024B000881F7A95C9F780950895EE0FFF1F059044
:1024C000F491E02D0994F894FFCF0506071011123E
:1024D000133132333435363738392030200000009C
:1024E00000A10122024201EE0173015101650100C8
:1024F000000000AA062202C504C404000000001265
:1025000003D202A1026E616E00696E66006F76668C
:10251000002057656C636F6D6520746F00636F6E8C
:1025200074726F6C2041726D000D0A0050726573F9
:102530007320312028666F727761726429006F7290
:1025400020322028696E76657273652900466F72A5
:1025500077617264206B696E656D617469630049AF
:102560006E7665727365206B696E656D6174696303
:1025700000456E74657220616E676C652051310094
:10258000456E74657220616E676C6520513200453E
:102590006E6420706F696E74206F662061726D00CA
:1025A0003A00456E7465722076616C7565206F66C1
:1025B000205800456E7465722076616C7565206FD9
:1025C00066205900416E676C65206F662041726D10
:0825D00000260051323D00001D
:107E0000112484B714BE81FFF0D085E080938100F7
:107E100082E08093C00088E18093C10086E0809377
:107E2000C20080E18093C4008EE0C9D0259A86E02C
:107E300020E33CEF91E0309385002093840096BBD3
:107E4000B09BFECF1D9AA8958150A9F7CC24DD24C4
:107E500088248394B5E0AB2EA1E19A2EF3E0BF2EE7
:107E6000A2D0813461F49FD0082FAFD0023811F036
:107E7000013811F484E001C083E08DD089C08234E0
:107E800011F484E103C0853419F485E0A6D080C0E4
:107E9000853579F488D0E82EFF2485D0082F10E0AE
:107EA000102F00270E291F29000F111F8ED06801E7
:107EB0006FC0863521F484E090D080E0DECF843638
:107EC00009F040C070D06FD0082F6DD080E0C81688
:107ED00080E7D80618F4F601B7BEE895C0E0D1E017
:107EE00062D089930C17E1F7F0E0CF16F0E7DF06D8
:107EF00018F0F601B7BEE89568D007B600FCFDCFD4
:107F0000A601A0E0B1E02C9130E011968C91119780
:107F100090E0982F8827822B932B1296FA010C0160
:107F200087BEE89511244E5F5F4FF1E0A038BF0790
:107F300051F7F601A7BEE89507B600FCFDCF97BE46
:107F4000E89526C08437B1F42ED02DD0F82E2BD052
:107F50003CD0F601EF2C8F010F5F1F4F84911BD097
:107F6000EA94F801C1F70894C11CD11CFA94CF0C13
:107F7000D11C0EC0853739F428D08EE10CD085E9AC
:107F80000AD08FE07ACF813511F488E018D01DD067
:107F900080E101D065CF982F8091C00085FFFCCF94
:107FA0009093C60008958091C00087FFFCCF809118
:107FB000C00084FD01C0A8958091C6000895E0E648
:107FC000F0E098E1908380830895EDDF803219F02E
:107FD00088E0F5DFFFCF84E1DECF1F93182FE3DFCA
:107FE0001150E9F7F2DF1F91089580E0E8DFEE27F6
:047FF000FF270994CA
:027FFE00040479
:00000001FF
